{
  "_format": "hh-sol-artifact-1",
  "contractName": "DukeUniversityCredit",
  "sourceName": "contracts/DukeCredit.sol",
  "abi": [
    {
      "inputs": [],
      "stateMutability": "nonpayable",
      "type": "constructor"
    },
    {
      "anonymous": false,
      "inputs": [
        {
          "indexed": true,
          "internalType": "address",
          "name": "owner",
          "type": "address"
        },
        {
          "indexed": true,
          "internalType": "address",
          "name": "spender",
          "type": "address"
        },
        {
          "indexed": false,
          "internalType": "uint256",
          "name": "value",
          "type": "uint256"
        }
      ],
      "name": "Approval",
      "type": "event"
    },
    {
      "anonymous": false,
      "inputs": [
        {
          "indexed": false,
          "internalType": "address",
          "name": "account",
          "type": "address"
        }
      ],
      "name": "Paused",
      "type": "event"
    },
    {
      "anonymous": false,
      "inputs": [
        {
          "indexed": true,
          "internalType": "bytes32",
          "name": "role",
          "type": "bytes32"
        },
        {
          "indexed": true,
          "internalType": "bytes32",
          "name": "previousAdminRole",
          "type": "bytes32"
        },
        {
          "indexed": true,
          "internalType": "bytes32",
          "name": "newAdminRole",
          "type": "bytes32"
        }
      ],
      "name": "RoleAdminChanged",
      "type": "event"
    },
    {
      "anonymous": false,
      "inputs": [
        {
          "indexed": true,
          "internalType": "bytes32",
          "name": "role",
          "type": "bytes32"
        },
        {
          "indexed": true,
          "internalType": "address",
          "name": "account",
          "type": "address"
        },
        {
          "indexed": true,
          "internalType": "address",
          "name": "sender",
          "type": "address"
        }
      ],
      "name": "RoleGranted",
      "type": "event"
    },
    {
      "anonymous": false,
      "inputs": [
        {
          "indexed": true,
          "internalType": "bytes32",
          "name": "role",
          "type": "bytes32"
        },
        {
          "indexed": true,
          "internalType": "address",
          "name": "account",
          "type": "address"
        },
        {
          "indexed": true,
          "internalType": "address",
          "name": "sender",
          "type": "address"
        }
      ],
      "name": "RoleRevoked",
      "type": "event"
    },
    {
      "anonymous": false,
      "inputs": [
        {
          "indexed": true,
          "internalType": "address",
          "name": "account",
          "type": "address"
        }
      ],
      "name": "SpenderAdded",
      "type": "event"
    },
    {
      "anonymous": false,
      "inputs": [
        {
          "indexed": true,
          "internalType": "address",
          "name": "account",
          "type": "address"
        }
      ],
      "name": "SpenderRemoved",
      "type": "event"
    },
    {
      "anonymous": false,
      "inputs": [
        {
          "indexed": true,
          "internalType": "address",
          "name": "from",
          "type": "address"
        },
        {
          "indexed": true,
          "internalType": "address",
          "name": "to",
          "type": "address"
        },
        {
          "indexed": false,
          "internalType": "uint256",
          "name": "value",
          "type": "uint256"
        }
      ],
      "name": "Transfer",
      "type": "event"
    },
    {
      "anonymous": false,
      "inputs": [
        {
          "indexed": false,
          "internalType": "address",
          "name": "account",
          "type": "address"
        }
      ],
      "name": "Unpaused",
      "type": "event"
    },
    {
      "inputs": [],
      "name": "DEFAULT_ADMIN_ROLE",
      "outputs": [
        {
          "internalType": "bytes32",
          "name": "",
          "type": "bytes32"
        }
      ],
      "stateMutability": "view",
      "type": "function"
    },
    {
      "inputs": [],
      "name": "MINTER_ROLE",
      "outputs": [
        {
          "internalType": "bytes32",
          "name": "",
          "type": "bytes32"
        }
      ],
      "stateMutability": "view",
      "type": "function"
    },
    {
      "inputs": [],
      "name": "PAUSER_ROLE",
      "outputs": [
        {
          "internalType": "bytes32",
          "name": "",
          "type": "bytes32"
        }
      ],
      "stateMutability": "view",
      "type": "function"
    },
    {
      "inputs": [
        {
          "internalType": "address",
          "name": "account",
          "type": "address"
        }
      ],
      "name": "addSpender",
      "outputs": [],
      "stateMutability": "nonpayable",
      "type": "function"
    },
    {
      "inputs": [
        {
          "internalType": "address",
          "name": "owner",
          "type": "address"
        },
        {
          "internalType": "address",
          "name": "spender",
          "type": "address"
        }
      ],
      "name": "allowance",
      "outputs": [
        {
          "internalType": "uint256",
          "name": "",
          "type": "uint256"
        }
      ],
      "stateMutability": "view",
      "type": "function"
    },
    {
      "inputs": [
        {
          "internalType": "address",
          "name": "spender",
          "type": "address"
        },
        {
          "internalType": "uint256",
          "name": "amount",
          "type": "uint256"
        }
      ],
      "name": "approve",
      "outputs": [
        {
          "internalType": "bool",
          "name": "",
          "type": "bool"
        }
      ],
      "stateMutability": "nonpayable",
      "type": "function"
    },
    {
      "inputs": [
        {
          "internalType": "address",
          "name": "account",
          "type": "address"
        }
      ],
      "name": "balanceOf",
      "outputs": [
        {
          "internalType": "uint256",
          "name": "",
          "type": "uint256"
        }
      ],
      "stateMutability": "view",
      "type": "function"
    },
    {
      "inputs": [
        {
          "internalType": "uint256",
          "name": "amount",
          "type": "uint256"
        }
      ],
      "name": "burn",
      "outputs": [],
      "stateMutability": "nonpayable",
      "type": "function"
    },
    {
      "inputs": [
        {
          "internalType": "address",
          "name": "account",
          "type": "address"
        },
        {
          "internalType": "uint256",
          "name": "amount",
          "type": "uint256"
        }
      ],
      "name": "burnFrom",
      "outputs": [],
      "stateMutability": "nonpayable",
      "type": "function"
    },
    {
      "inputs": [],
      "name": "decimals",
      "outputs": [
        {
          "internalType": "uint8",
          "name": "",
          "type": "uint8"
        }
      ],
      "stateMutability": "view",
      "type": "function"
    },
    {
      "inputs": [
        {
          "internalType": "address",
          "name": "spender",
          "type": "address"
        },
        {
          "internalType": "uint256",
          "name": "subtractedValue",
          "type": "uint256"
        }
      ],
      "name": "decreaseAllowance",
      "outputs": [
        {
          "internalType": "bool",
          "name": "",
          "type": "bool"
        }
      ],
      "stateMutability": "nonpayable",
      "type": "function"
    },
    {
      "inputs": [
        {
          "internalType": "bytes32",
          "name": "role",
          "type": "bytes32"
        }
      ],
      "name": "getRoleAdmin",
      "outputs": [
        {
          "internalType": "bytes32",
          "name": "",
          "type": "bytes32"
        }
      ],
      "stateMutability": "view",
      "type": "function"
    },
    {
      "inputs": [
        {
          "internalType": "bytes32",
          "name": "role",
          "type": "bytes32"
        },
        {
          "internalType": "address",
          "name": "account",
          "type": "address"
        }
      ],
      "name": "grantRole",
      "outputs": [],
      "stateMutability": "nonpayable",
      "type": "function"
    },
    {
      "inputs": [
        {
          "internalType": "bytes32",
          "name": "role",
          "type": "bytes32"
        },
        {
          "internalType": "address",
          "name": "account",
          "type": "address"
        }
      ],
      "name": "hasRole",
      "outputs": [
        {
          "internalType": "bool",
          "name": "",
          "type": "bool"
        }
      ],
      "stateMutability": "view",
      "type": "function"
    },
    {
      "inputs": [
        {
          "internalType": "address",
          "name": "spender",
          "type": "address"
        },
        {
          "internalType": "uint256",
          "name": "addedValue",
          "type": "uint256"
        }
      ],
      "name": "increaseAllowance",
      "outputs": [
        {
          "internalType": "bool",
          "name": "",
          "type": "bool"
        }
      ],
      "stateMutability": "nonpayable",
      "type": "function"
    },
    {
      "inputs": [
        {
          "internalType": "address",
          "name": "account",
          "type": "address"
        }
      ],
      "name": "isSpender",
      "outputs": [
        {
          "internalType": "bool",
          "name": "",
          "type": "bool"
        }
      ],
      "stateMutability": "view",
      "type": "function"
    },
    {
      "inputs": [
        {
          "internalType": "address",
          "name": "to",
          "type": "address"
        },
        {
          "internalType": "uint256",
          "name": "amount",
          "type": "uint256"
        }
      ],
      "name": "mint",
      "outputs": [],
      "stateMutability": "nonpayable",
      "type": "function"
    },
    {
      "inputs": [],
      "name": "name",
      "outputs": [
        {
          "internalType": "string",
          "name": "",
          "type": "string"
        }
      ],
      "stateMutability": "view",
      "type": "function"
    },
    {
      "inputs": [],
      "name": "pause",
      "outputs": [],
      "stateMutability": "nonpayable",
      "type": "function"
    },
    {
      "inputs": [],
      "name": "paused",
      "outputs": [
        {
          "internalType": "bool",
          "name": "",
          "type": "bool"
        }
      ],
      "stateMutability": "view",
      "type": "function"
    },
    {
      "inputs": [
        {
          "internalType": "bytes32",
          "name": "role",
          "type": "bytes32"
        },
        {
          "internalType": "address",
          "name": "account",
          "type": "address"
        }
      ],
      "name": "renounceRole",
      "outputs": [],
      "stateMutability": "nonpayable",
      "type": "function"
    },
    {
      "inputs": [],
      "name": "renounceSpender",
      "outputs": [],
      "stateMutability": "nonpayable",
      "type": "function"
    },
    {
      "inputs": [
        {
          "internalType": "bytes32",
          "name": "role",
          "type": "bytes32"
        },
        {
          "internalType": "address",
          "name": "account",
          "type": "address"
        }
      ],
      "name": "revokeRole",
      "outputs": [],
      "stateMutability": "nonpayable",
      "type": "function"
    },
    {
      "inputs": [
        {
          "internalType": "address",
          "name": "from",
          "type": "address"
        },
        {
          "internalType": "uint256",
          "name": "value",
          "type": "uint256"
        }
      ],
      "name": "spend",
      "outputs": [
        {
          "internalType": "bool",
          "name": "",
          "type": "bool"
        }
      ],
      "stateMutability": "nonpayable",
      "type": "function"
    },
    {
      "inputs": [
        {
          "internalType": "bytes4",
          "name": "interfaceId",
          "type": "bytes4"
        }
      ],
      "name": "supportsInterface",
      "outputs": [
        {
          "internalType": "bool",
          "name": "",
          "type": "bool"
        }
      ],
      "stateMutability": "view",
      "type": "function"
    },
    {
      "inputs": [],
      "name": "symbol",
      "outputs": [
        {
          "internalType": "string",
          "name": "",
          "type": "string"
        }
      ],
      "stateMutability": "view",
      "type": "function"
    },
    {
      "inputs": [],
      "name": "totalSupply",
      "outputs": [
        {
          "internalType": "uint256",
          "name": "",
          "type": "uint256"
        }
      ],
      "stateMutability": "view",
      "type": "function"
    },
    {
      "inputs": [
        {
          "internalType": "address",
          "name": "recipient",
          "type": "address"
        },
        {
          "internalType": "uint256",
          "name": "amount",
          "type": "uint256"
        }
      ],
      "name": "transfer",
      "outputs": [
        {
          "internalType": "bool",
          "name": "",
          "type": "bool"
        }
      ],
      "stateMutability": "nonpayable",
      "type": "function"
    },
    {
      "inputs": [
        {
          "internalType": "address",
          "name": "sender",
          "type": "address"
        },
        {
          "internalType": "address",
          "name": "recipient",
          "type": "address"
        },
        {
          "internalType": "uint256",
          "name": "amount",
          "type": "uint256"
        }
      ],
      "name": "transferFrom",
      "outputs": [
        {
          "internalType": "bool",
          "name": "",
          "type": "bool"
        }
      ],
      "stateMutability": "nonpayable",
      "type": "function"
    },
    {
      "inputs": [],
      "name": "unpause",
      "outputs": [],
      "stateMutability": "nonpayable",
      "type": "function"
    }
  ],
  "bytecode": "0x60806040523480156200001157600080fd5b506040518060400160405280601481526020017f44756b65556e69766572736974794372656469740000000000000000000000008152506040518060400160405280600481526020017f44554b45000000000000000000000000000000000000000000000000000000008152508160039080519060200190620000969291906200064a565b508060049080519060200190620000af9291906200064a565b5050506000600560006101000a81548160ff021916908315150217905550620000de336200019b60201b60201c565b620000f36000801b33620001fd60201b60201c565b620001257f65d7a28e3265b37a6474929f336521b332c1681b933f6cb9f3376673440d862a33620001fd60201b60201c565b62000163336200013a620002ef60201b60201c565b600a62000148919062000883565b610190620001579190620009c0565b620002f860201b60201c565b620001957f9f2df0fed2c77648de5860a4cc508cd0818c85b8b8a1ab4ceeef8d981c8956a633620001fd60201b60201c565b62000b2b565b620001b68160076200047160201b62000eba1790919060201c565b508073ffffffffffffffffffffffffffffffffffffffff167f3139419c41cdd7abca84fa19dd21118cd285d3e2ce1a9444e8161ce9fa62fdcd60405160405180910390a250565b6200020f8282620004a960201b60201c565b620002eb5760016006600084815260200190815260200160002060000160008373ffffffffffffffffffffffffffffffffffffffff1673ffffffffffffffffffffffffffffffffffffffff16815260200190815260200160002060006101000a81548160ff021916908315150217905550620002906200051460201b60201c565b73ffffffffffffffffffffffffffffffffffffffff168173ffffffffffffffffffffffffffffffffffffffff16837f2f8788117e7eff1d82e926ec794901d17c78024a50270940304540a733656f0d60405160405180910390a45b5050565b60006012905090565b600073ffffffffffffffffffffffffffffffffffffffff168273ffffffffffffffffffffffffffffffffffffffff1614156200036b576040517f08c379a000000000000000000000000000000000000000000000000000000000815260040162000362906200077b565b60405180910390fd5b6200037f600083836200051c60201b60201c565b8060026000828254620003939190620007cb565b92505081905550806000808473ffffffffffffffffffffffffffffffffffffffff1673ffffffffffffffffffffffffffffffffffffffff1681526020019081526020016000206000828254620003ea9190620007cb565b925050819055508173ffffffffffffffffffffffffffffffffffffffff16600073ffffffffffffffffffffffffffffffffffffffff167fddf252ad1be2c89b69c2b068fc378daa952ba7f163c4a11628f55a4df523b3ef836040516200045191906200079d565b60405180910390a36200046d600083836200058c60201b60201c565b5050565b6000620004a1836000018373ffffffffffffffffffffffffffffffffffffffff1660001b6200059160201b60201c565b905092915050565b60006006600084815260200190815260200160002060000160008373ffffffffffffffffffffffffffffffffffffffff1673ffffffffffffffffffffffffffffffffffffffff16815260200190815260200160002060009054906101000a900460ff16905092915050565b600033905090565b6200052c6200060b60201b60201c565b156200056f576040517f08c379a0000000000000000000000000000000000000000000000000000000008152600401620005669062000759565b60405180910390fd5b620005878383836200062260201b62000eea1760201c565b505050565b505050565b6000620005a583836200062760201b60201c565b6200060057826000018290806001815401808255809150506001900390600052602060002001600090919091909150558260000180549050836001016000848152602001908152602001600020819055506001905062000605565b600090505b92915050565b6000600560009054906101000a900460ff16905090565b505050565b600080836001016000848152602001908152602001600020541415905092915050565b828054620006589062000a38565b90600052602060002090601f0160209004810192826200067c5760008555620006c8565b82601f106200069757805160ff1916838001178555620006c8565b82800160010185558215620006c8579182015b82811115620006c7578251825591602001919060010190620006aa565b5b509050620006d79190620006db565b5090565b5b80821115620006f6576000816000905550600101620006dc565b5090565b600062000709601083620007ba565b9150620007168262000ad9565b602082019050919050565b600062000730601f83620007ba565b91506200073d8262000b02565b602082019050919050565b620007538162000a21565b82525050565b600060208201905081810360008301526200077481620006fa565b9050919050565b60006020820190508181036000830152620007968162000721565b9050919050565b6000602082019050620007b4600083018462000748565b92915050565b600082825260208201905092915050565b6000620007d88262000a21565b9150620007e58362000a21565b9250827fffffffffffffffffffffffffffffffffffffffffffffffffffffffffffffffff038211156200081d576200081c62000a6e565b5b828201905092915050565b6000808291508390505b60018511156200087a5780860481111562000852576200085162000a6e565b5b6001851615620008625780820291505b8081029050620008728562000acc565b945062000832565b94509492505050565b6000620008908262000a21565b91506200089d8362000a2b565b9250620008cc7fffffffffffffffffffffffffffffffffffffffffffffffffffffffffffffffff8484620008d4565b905092915050565b600082620008e65760019050620009b9565b81620008f65760009050620009b9565b81600181146200090f57600281146200091a5762000950565b6001915050620009b9565b60ff8411156200092f576200092e62000a6e565b5b8360020a91508482111562000949576200094862000a6e565b5b50620009b9565b5060208310610133831016604e8410600b84101617156200098a5782820a90508381111562000984576200098362000a6e565b5b620009b9565b62000999848484600162000828565b92509050818404811115620009b357620009b262000a6e565b5b81810290505b9392505050565b6000620009cd8262000a21565b9150620009da8362000a21565b9250817fffffffffffffffffffffffffffffffffffffffffffffffffffffffffffffffff048311821515161562000a165762000a1562000a6e565b5b828202905092915050565b6000819050919050565b600060ff82169050919050565b6000600282049050600182168062000a5157607f821691505b6020821081141562000a685762000a6762000a9d565b5b50919050565b7f4e487b7100000000000000000000000000000000000000000000000000000000600052601160045260246000fd5b7f4e487b7100000000000000000000000000000000000000000000000000000000600052602260045260246000fd5b60008160011c9050919050565b7f5061757361626c653a2070617573656400000000000000000000000000000000600082015250565b7f45524332303a206d696e7420746f20746865207a65726f206164647265737300600082015250565b6130568062000b3b6000396000f3fe608060405234801561001057600080fd5b50600436106101da5760003560e01c806379cc679011610104578063a9059cbb116100a2578063dd62ed3e11610071578063dd62ed3e1461057d578063e63ab1e9146105ad578063e7a027ea146105cb578063e7e31e7a146105d5576101da565b8063a9059cbb146104e3578063af7d6ca314610513578063d539139314610543578063d547741f14610561576101da565b806395d89b41116100de57806395d89b41146104475780639a206ece14610465578063a217fddf14610495578063a457c2d7146104b3576101da565b806379cc6790146103f15780638456cb591461040d57806391d1485414610417576101da565b8063313ce5671161017c57806340c10f191161014b57806340c10f191461036b57806342966c68146103875780635c975abb146103a357806370a08231146103c1576101da565b8063313ce567146102f757806336568abe1461031557806339509351146103315780633f4ba83a14610361576101da565b806318160ddd116101b857806318160ddd1461025d57806323b872dd1461027b578063248a9ca3146102ab5780632f2ff15d146102db576101da565b806301ffc9a7146101df57806306fdde031461020f578063095ea7b31461022d575b600080fd5b6101f960048036038101906101f491906122b8565b6105f1565b6040516102069190612667565b60405180910390f35b61021761066b565b604051610224919061269d565b60405180910390f35b61024760048036038101906102429190612217565b6106fd565b6040516102549190612667565b60405180910390f35b61026561071b565b604051610272919061289f565b60405180910390f35b610295600480360381019061029091906121c8565b610725565b6040516102a29190612667565b60405180910390f35b6102c560048036038101906102c09190612253565b61081d565b6040516102d29190612682565b60405180910390f35b6102f560048036038101906102f0919061227c565b61083d565b005b6102ff610866565b60405161030c91906128ba565b60405180910390f35b61032f600480360381019061032a919061227c565b61086f565b005b61034b60048036038101906103469190612217565b6108f2565b6040516103589190612667565b60405180910390f35b61036961099e565b005b61038560048036038101906103809190612217565b6109db565b005b6103a1600480360381019061039c91906122e1565b610a1c565b005b6103ab610a30565b6040516103b89190612667565b60405180910390f35b6103db60048036038101906103d69190612163565b610a47565b6040516103e8919061289f565b60405180910390f35b61040b60048036038101906104069190612217565b610a8f565b005b610415610b0a565b005b610431600480360381019061042c919061227c565b610b47565b60405161043e9190612667565b60405180910390f35b61044f610bb2565b60405161045c919061269d565b60405180910390f35b61047f600480360381019061047a9190612163565b610c44565b60405161048c9190612667565b60405180910390f35b61049d610c61565b6040516104aa9190612682565b60405180910390f35b6104cd60048036038101906104c89190612217565b610c68565b6040516104da9190612667565b60405180910390f35b6104fd60048036038101906104f89190612217565b610d53565b60405161050a9190612667565b60405180910390f35b61052d60048036038101906105289190612217565b610d71565b60405161053a9190612667565b60405180910390f35b61054b610d99565b6040516105589190612682565b60405180910390f35b61057b6004803603810190610576919061227c565b610dbd565b005b6105976004803603810190610592919061218c565b610de6565b6040516105a4919061289f565b60405180910390f35b6105b5610e6d565b6040516105c29190612682565b60405180910390f35b6105d3610e91565b005b6105ef60048036038101906105ea9190612163565b610e9c565b005b60007f7965db0b000000000000000000000000000000000000000000000000000000007bffffffffffffffffffffffffffffffffffffffffffffffffffffffff1916827bffffffffffffffffffffffffffffffffffffffffffffffffffffffff19161480610664575061066382610eef565b5b9050919050565b60606003805461067a90612ac8565b80601f01602080910402602001604051908101604052809291908181526020018280546106a690612ac8565b80156106f35780601f106106c8576101008083540402835291602001916106f3565b820191906000526020600020905b8154815290600101906020018083116106d657829003601f168201915b5050505050905090565b600061071161070a610f59565b8484610f61565b6001905092915050565b6000600254905090565b600061073284848461112c565b6000600160008673ffffffffffffffffffffffffffffffffffffffff1673ffffffffffffffffffffffffffffffffffffffff168152602001908152602001600020600061077d610f59565b73ffffffffffffffffffffffffffffffffffffffff1673ffffffffffffffffffffffffffffffffffffffff168152602001908152602001600020549050828110156107fd576040517f08c379a00000000000000000000000000000000000000000000000000000000081526004016107f49061279f565b60405180910390fd5b61081185610809610f59565b858403610f61565b60019150509392505050565b600060066000838152602001908152602001600020600101549050919050565b6108468261081d565b61085781610852610f59565b6113ad565b610861838361144a565b505050565b60006012905090565b610877610f59565b73ffffffffffffffffffffffffffffffffffffffff168173ffffffffffffffffffffffffffffffffffffffff16146108e4576040517f08c379a00000000000000000000000000000000000000000000000000000000081526004016108db9061285f565b60405180910390fd5b6108ee828261152b565b5050565b60006109946108ff610f59565b84846001600061090d610f59565b73ffffffffffffffffffffffffffffffffffffffff1673ffffffffffffffffffffffffffffffffffffffff16815260200190815260200160002060008873ffffffffffffffffffffffffffffffffffffffff1673ffffffffffffffffffffffffffffffffffffffff1681526020019081526020016000205461098f91906128fc565b610f61565b6001905092915050565b7f65d7a28e3265b37a6474929f336521b332c1681b933f6cb9f3376673440d862a6109d0816109cb610f59565b6113ad565b6109d861160d565b50565b7f9f2df0fed2c77648de5860a4cc508cd0818c85b8b8a1ab4ceeef8d981c8956a6610a0d81610a08610f59565b6113ad565b610a1783836116af565b505050565b610a2d610a27610f59565b8261180f565b50565b6000600560009054906101000a900460ff16905090565b60008060008373ffffffffffffffffffffffffffffffffffffffff1673ffffffffffffffffffffffffffffffffffffffff168152602001908152602001600020549050919050565b6000610aa283610a9d610f59565b610de6565b905081811015610ae7576040517f08c379a0000000000000000000000000000000000000000000000000000000008152600401610ade906127bf565b60405180910390fd5b610afb83610af3610f59565b848403610f61565b610b05838361180f565b505050565b7f65d7a28e3265b37a6474929f336521b332c1681b933f6cb9f3376673440d862a610b3c81610b37610f59565b6113ad565b610b446119e6565b50565b60006006600084815260200190815260200160002060000160008373ffffffffffffffffffffffffffffffffffffffff1673ffffffffffffffffffffffffffffffffffffffff16815260200190815260200160002060009054906101000a900460ff16905092915050565b606060048054610bc190612ac8565b80601f0160208091040260200160405190810160405280929190818152602001828054610bed90612ac8565b8015610c3a5780601f10610c0f57610100808354040283529160200191610c3a565b820191906000526020600020905b815481529060010190602001808311610c1d57829003601f168201915b5050505050905090565b6000610c5a826007611a8990919063ffffffff16565b9050919050565b6000801b81565b60008060016000610c77610f59565b73ffffffffffffffffffffffffffffffffffffffff1673ffffffffffffffffffffffffffffffffffffffff16815260200190815260200160002060008573ffffffffffffffffffffffffffffffffffffffff1673ffffffffffffffffffffffffffffffffffffffff16815260200190815260200160002054905082811015610d34576040517f08c379a0000000000000000000000000000000000000000000000000000000008152600401610d2b9061283f565b60405180910390fd5b610d48610d3f610f59565b85858403610f61565b600191505092915050565b6000610d67610d60610f59565b848461112c565b6001905092915050565b6000610d7c33610c44565b610d8557600080fd5b610d8f838361180f565b6001905092915050565b7f9f2df0fed2c77648de5860a4cc508cd0818c85b8b8a1ab4ceeef8d981c8956a681565b610dc68261081d565b610dd781610dd2610f59565b6113ad565b610de1838361152b565b505050565b6000600160008473ffffffffffffffffffffffffffffffffffffffff1673ffffffffffffffffffffffffffffffffffffffff16815260200190815260200160002060008373ffffffffffffffffffffffffffffffffffffffff1673ffffffffffffffffffffffffffffffffffffffff16815260200190815260200160002054905092915050565b7f65d7a28e3265b37a6474929f336521b332c1681b933f6cb9f3376673440d862a81565b610e9a33611ab9565b565b610ea533610c44565b610eae57600080fd5b610eb781611b14565b50565b6000610ee2836000018373ffffffffffffffffffffffffffffffffffffffff1660001b611b6f565b905092915050565b505050565b60007f01ffc9a7000000000000000000000000000000000000000000000000000000007bffffffffffffffffffffffffffffffffffffffffffffffffffffffff1916827bffffffffffffffffffffffffffffffffffffffffffffffffffffffff1916149050919050565b600033905090565b600073ffffffffffffffffffffffffffffffffffffffff168373ffffffffffffffffffffffffffffffffffffffff161415610fd1576040517f08c379a0000000000000000000000000000000000000000000000000000000008152600401610fc89061281f565b60405180910390fd5b600073ffffffffffffffffffffffffffffffffffffffff168273ffffffffffffffffffffffffffffffffffffffff161415611041576040517f08c379a00000000000000000000000000000000000000000000000000000000081526004016110389061273f565b60405180910390fd5b80600160008573ffffffffffffffffffffffffffffffffffffffff1673ffffffffffffffffffffffffffffffffffffffff16815260200190815260200160002060008473ffffffffffffffffffffffffffffffffffffffff1673ffffffffffffffffffffffffffffffffffffffff168152602001908152602001600020819055508173ffffffffffffffffffffffffffffffffffffffff168373ffffffffffffffffffffffffffffffffffffffff167f8c5be1e5ebec7d5bd14f71427d1e84f3dd0314c0f7b2291e5b200ac8c7c3b9258360405161111f919061289f565b60405180910390a3505050565b600073ffffffffffffffffffffffffffffffffffffffff168373ffffffffffffffffffffffffffffffffffffffff16141561119c576040517f08c379a0000000000000000000000000000000000000000000000000000000008152600401611193906127ff565b60405180910390fd5b600073ffffffffffffffffffffffffffffffffffffffff168273ffffffffffffffffffffffffffffffffffffffff16141561120c576040517f08c379a0000000000000000000000000000000000000000000000000000000008152600401611203906126df565b60405180910390fd5b611217838383611bdf565b60008060008573ffffffffffffffffffffffffffffffffffffffff1673ffffffffffffffffffffffffffffffffffffffff1681526020019081526020016000205490508181101561129d576040517f08c379a00000000000000000000000000000000000000000000000000000000081526004016112949061275f565b60405180910390fd5b8181036000808673ffffffffffffffffffffffffffffffffffffffff1673ffffffffffffffffffffffffffffffffffffffff16815260200190815260200160002081905550816000808573ffffffffffffffffffffffffffffffffffffffff1673ffffffffffffffffffffffffffffffffffffffff168152602001908152602001600020600082825461133091906128fc565b925050819055508273ffffffffffffffffffffffffffffffffffffffff168473ffffffffffffffffffffffffffffffffffffffff167fddf252ad1be2c89b69c2b068fc378daa952ba7f163c4a11628f55a4df523b3ef84604051611394919061289f565b60405180910390a36113a7848484611c37565b50505050565b6113b78282610b47565b611446576113dc8173ffffffffffffffffffffffffffffffffffffffff166014611c3c565b6113ea8360001c6020611c3c565b6040516020016113fb929190612612565b6040516020818303038152906040526040517f08c379a000000000000000000000000000000000000000000000000000000000815260040161143d919061269d565b60405180910390fd5b5050565b6114548282610b47565b6115275760016006600084815260200190815260200160002060000160008373ffffffffffffffffffffffffffffffffffffffff1673ffffffffffffffffffffffffffffffffffffffff16815260200190815260200160002060006101000a81548160ff0219169083151502179055506114cc610f59565b73ffffffffffffffffffffffffffffffffffffffff168173ffffffffffffffffffffffffffffffffffffffff16837f2f8788117e7eff1d82e926ec794901d17c78024a50270940304540a733656f0d60405160405180910390a45b5050565b6115358282610b47565b156116095760006006600084815260200190815260200160002060000160008373ffffffffffffffffffffffffffffffffffffffff1673ffffffffffffffffffffffffffffffffffffffff16815260200190815260200160002060006101000a81548160ff0219169083151502179055506115ae610f59565b73ffffffffffffffffffffffffffffffffffffffff168173ffffffffffffffffffffffffffffffffffffffff16837ff6391f5c32d9c69d2a47ea670b442974b53935d1edc7fd64eb21e047a839171b60405160405180910390a45b5050565b611615610a30565b611654576040517f08c379a000000000000000000000000000000000000000000000000000000000815260040161164b906126ff565b60405180910390fd5b6000600560006101000a81548160ff0219169083151502179055507f5db9ee0a495bf2e6ff9c91a7834c1ba4fdd244a5e8aa4e537bd38aeae4b073aa611698610f59565b6040516116a5919061264c565b60405180910390a1565b600073ffffffffffffffffffffffffffffffffffffffff168273ffffffffffffffffffffffffffffffffffffffff16141561171f576040517f08c379a00000000000000000000000000000000000000000000000000000000081526004016117169061287f565b60405180910390fd5b61172b60008383611bdf565b806002600082825461173d91906128fc565b92505081905550806000808473ffffffffffffffffffffffffffffffffffffffff1673ffffffffffffffffffffffffffffffffffffffff168152602001908152602001600020600082825461179291906128fc565b925050819055508173ffffffffffffffffffffffffffffffffffffffff16600073ffffffffffffffffffffffffffffffffffffffff167fddf252ad1be2c89b69c2b068fc378daa952ba7f163c4a11628f55a4df523b3ef836040516117f7919061289f565b60405180910390a361180b60008383611c37565b5050565b600073ffffffffffffffffffffffffffffffffffffffff168273ffffffffffffffffffffffffffffffffffffffff16141561187f576040517f08c379a0000000000000000000000000000000000000000000000000000000008152600401611876906127df565b60405180910390fd5b61188b82600083611bdf565b60008060008473ffffffffffffffffffffffffffffffffffffffff1673ffffffffffffffffffffffffffffffffffffffff16815260200190815260200160002054905081811015611911576040517f08c379a00000000000000000000000000000000000000000000000000000000081526004016119089061271f565b60405180910390fd5b8181036000808573ffffffffffffffffffffffffffffffffffffffff1673ffffffffffffffffffffffffffffffffffffffff16815260200190815260200160002081905550816002600082825461196891906129ac565b92505081905550600073ffffffffffffffffffffffffffffffffffffffff168373ffffffffffffffffffffffffffffffffffffffff167fddf252ad1be2c89b69c2b068fc378daa952ba7f163c4a11628f55a4df523b3ef846040516119cd919061289f565b60405180910390a36119e183600084611c37565b505050565b6119ee610a30565b15611a2e576040517f08c379a0000000000000000000000000000000000000000000000000000000008152600401611a259061277f565b60405180910390fd5b6001600560006101000a81548160ff0219169083151502179055507f62e78cea01bee320cd4e420270b5ea74000d11b0c9f74754ebdbfc544b05a258611a72610f59565b604051611a7f919061264c565b60405180910390a1565b6000611ab1836000018373ffffffffffffffffffffffffffffffffffffffff1660001b611f36565b905092915050565b611acd816007611f5990919063ffffffff16565b508073ffffffffffffffffffffffffffffffffffffffff167fab8cff50266d80b9c9d9703af934ca455b9218286bf4fcaa05653a564c499e4b60405160405180910390a250565b611b28816007610eba90919063ffffffff16565b508073ffffffffffffffffffffffffffffffffffffffff167f3139419c41cdd7abca84fa19dd21118cd285d3e2ce1a9444e8161ce9fa62fdcd60405160405180910390a250565b6000611b7b8383611f36565b611bd4578260000182908060018154018082558091505060019003906000526020600020016000909190919091505582600001805490508360010160008481526020019081526020016000208190555060019050611bd9565b600090505b92915050565b611be7610a30565b15611c27576040517f08c379a0000000000000000000000000000000000000000000000000000000008152600401611c1e9061277f565b60405180910390fd5b611c32838383610eea565b505050565b505050565b606060006002836002611c4f9190612952565b611c5991906128fc565b67ffffffffffffffff811115611c98577f4e487b7100000000000000000000000000000000000000000000000000000000600052604160045260246000fd5b6040519080825280601f01601f191660200182016040528015611cca5781602001600182028036833780820191505090505b5090507f300000000000000000000000000000000000000000000000000000000000000081600081518110611d28577f4e487b7100000000000000000000000000000000000000000000000000000000600052603260045260246000fd5b60200101907effffffffffffffffffffffffffffffffffffffffffffffffffffffffffffff1916908160001a9053507f780000000000000000000000000000000000000000000000000000000000000081600181518110611db2577f4e487b7100000000000000000000000000000000000000000000000000000000600052603260045260246000fd5b60200101907effffffffffffffffffffffffffffffffffffffffffffffffffffffffffffff1916908160001a90535060006001846002611df29190612952565b611dfc91906128fc565b90505b6001811115611ee8577f3031323334353637383961626364656600000000000000000000000000000000600f861660108110611e64577f4e487b7100000000000000000000000000000000000000000000000000000000600052603260045260246000fd5b1a60f81b828281518110611ea1577f4e487b7100000000000000000000000000000000000000000000000000000000600052603260045260246000fd5b60200101907effffffffffffffffffffffffffffffffffffffffffffffffffffffffffffff1916908160001a905350600485901c945080611ee190612a9e565b9050611dff565b5060008414611f2c576040517f08c379a0000000000000000000000000000000000000000000000000000000008152600401611f23906126bf565b60405180910390fd5b8091505092915050565b600080836001016000848152602001908152602001600020541415905092915050565b6000611f81836000018373ffffffffffffffffffffffffffffffffffffffff1660001b611f89565b905092915050565b60008083600101600084815260200190815260200160002054905060008114612103576000600182611fbb91906129ac565b9050600060018660000180549050611fd391906129ac565b905081811461208e57600086600001828154811061201a577f4e487b7100000000000000000000000000000000000000000000000000000000600052603260045260246000fd5b9060005260206000200154905080876000018481548110612064577f4e487b7100000000000000000000000000000000000000000000000000000000600052603260045260246000fd5b90600052602060002001819055508387600101600083815260200190815260200160002081905550505b856000018054806120c8577f4e487b7100000000000000000000000000000000000000000000000000000000600052603160045260246000fd5b600190038181906000526020600020016000905590558560010160008681526020019081526020016000206000905560019350505050612109565b60009150505b92915050565b60008135905061211e81612fc4565b92915050565b60008135905061213381612fdb565b92915050565b60008135905061214881612ff2565b92915050565b60008135905061215d81613009565b92915050565b60006020828403121561217557600080fd5b60006121838482850161210f565b91505092915050565b6000806040838503121561219f57600080fd5b60006121ad8582860161210f565b92505060206121be8582860161210f565b9150509250929050565b6000806000606084860312156121dd57600080fd5b60006121eb8682870161210f565b93505060206121fc8682870161210f565b925050604061220d8682870161214e565b9150509250925092565b6000806040838503121561222a57600080fd5b60006122388582860161210f565b92505060206122498582860161214e565b9150509250929050565b60006020828403121561226557600080fd5b600061227384828501612124565b91505092915050565b6000806040838503121561228f57600080fd5b600061229d85828601612124565b92505060206122ae8582860161210f565b9150509250929050565b6000602082840312156122ca57600080fd5b60006122d884828501612139565b91505092915050565b6000602082840312156122f357600080fd5b60006123018482850161214e565b91505092915050565b612313816129e0565b82525050565b612322816129f2565b82525050565b612331816129fe565b82525050565b6000612342826128d5565b61234c81856128e0565b935061235c818560208601612a6b565b61236581612b58565b840191505092915050565b600061237b826128d5565b61238581856128f1565b9350612395818560208601612a6b565b80840191505092915050565b60006123ae6020836128e0565b91506123b982612b69565b602082019050919050565b60006123d16023836128e0565b91506123dc82612b92565b604082019050919050565b60006123f46014836128e0565b91506123ff82612be1565b602082019050919050565b60006124176022836128e0565b915061242282612c0a565b604082019050919050565b600061243a6022836128e0565b915061244582612c59565b604082019050919050565b600061245d6026836128e0565b915061246882612ca8565b604082019050919050565b60006124806010836128e0565b915061248b82612cf7565b602082019050919050565b60006124a36028836128e0565b91506124ae82612d20565b604082019050919050565b60006124c66024836128e0565b91506124d182612d6f565b604082019050919050565b60006124e96021836128e0565b91506124f482612dbe565b604082019050919050565b600061250c6025836128e0565b915061251782612e0d565b604082019050919050565b600061252f6024836128e0565b915061253a82612e5c565b604082019050919050565b60006125526017836128f1565b915061255d82612eab565b601782019050919050565b60006125756025836128e0565b915061258082612ed4565b604082019050919050565b60006125986011836128f1565b91506125a382612f23565b601182019050919050565b60006125bb602f836128e0565b91506125c682612f4c565b604082019050919050565b60006125de601f836128e0565b91506125e982612f9b565b602082019050919050565b6125fd81612a54565b82525050565b61260c81612a5e565b82525050565b600061261d82612545565b91506126298285612370565b91506126348261258b565b91506126408284612370565b91508190509392505050565b6000602082019050612661600083018461230a565b92915050565b600060208201905061267c6000830184612319565b92915050565b60006020820190506126976000830184612328565b92915050565b600060208201905081810360008301526126b78184612337565b905092915050565b600060208201905081810360008301526126d8816123a1565b9050919050565b600060208201905081810360008301526126f8816123c4565b9050919050565b60006020820190508181036000830152612718816123e7565b9050919050565b600060208201905081810360008301526127388161240a565b9050919050565b600060208201905081810360008301526127588161242d565b9050919050565b6000602082019050818103600083015261277881612450565b9050919050565b6000602082019050818103600083015261279881612473565b9050919050565b600060208201905081810360008301526127b881612496565b9050919050565b600060208201905081810360008301526127d8816124b9565b9050919050565b600060208201905081810360008301526127f8816124dc565b9050919050565b60006020820190508181036000830152612818816124ff565b9050919050565b6000602082019050818103600083015261283881612522565b9050919050565b6000602082019050818103600083015261285881612568565b9050919050565b60006020820190508181036000830152612878816125ae565b9050919050565b60006020820190508181036000830152612898816125d1565b9050919050565b60006020820190506128b460008301846125f4565b92915050565b60006020820190506128cf6000830184612603565b92915050565b600081519050919050565b600082825260208201905092915050565b600081905092915050565b600061290782612a54565b915061291283612a54565b9250827fffffffffffffffffffffffffffffffffffffffffffffffffffffffffffffffff0382111561294757612946612afa565b5b828201905092915050565b600061295d82612a54565b915061296883612a54565b9250817fffffffffffffffffffffffffffffffffffffffffffffffffffffffffffffffff04831182151516156129a1576129a0612afa565b5b828202905092915050565b60006129b782612a54565b91506129c283612a54565b9250828210156129d5576129d4612afa565b5b828203905092915050565b60006129eb82612a34565b9050919050565b60008115159050919050565b6000819050919050565b60007fffffffff0000000000000000000000000000000000000000000000000000000082169050919050565b600073ffffffffffffffffffffffffffffffffffffffff82169050919050565b6000819050919050565b600060ff82169050919050565b60005b83811015612a89578082015181840152602081019050612a6e565b83811115612a98576000848401525b50505050565b6000612aa982612a54565b91506000821415612abd57612abc612afa565b5b600182039050919050565b60006002820490506001821680612ae057607f821691505b60208210811415612af457612af3612b29565b5b50919050565b7f4e487b7100000000000000000000000000000000000000000000000000000000600052601160045260246000fd5b7f4e487b7100000000000000000000000000000000000000000000000000000000600052602260045260246000fd5b6000601f19601f8301169050919050565b7f537472696e67733a20686578206c656e67746820696e73756666696369656e74600082015250565b7f45524332303a207472616e7366657220746f20746865207a65726f206164647260008201527f6573730000000000000000000000000000000000000000000000000000000000602082015250565b7f5061757361626c653a206e6f7420706175736564000000000000000000000000600082015250565b7f45524332303a206275726e20616d6f756e7420657863656564732062616c616e60008201527f6365000000000000000000000000000000000000000000000000000000000000602082015250565b7f45524332303a20617070726f766520746f20746865207a65726f20616464726560008201527f7373000000000000000000000000000000000000000000000000000000000000602082015250565b7f45524332303a207472616e7366657220616d6f756e742065786365656473206260008201527f616c616e63650000000000000000000000000000000000000000000000000000602082015250565b7f5061757361626c653a2070617573656400000000000000000000000000000000600082015250565b7f45524332303a207472616e7366657220616d6f756e742065786365656473206160008201527f6c6c6f77616e6365000000000000000000000000000000000000000000000000602082015250565b7f45524332303a206275726e20616d6f756e74206578636565647320616c6c6f7760008201527f616e636500000000000000000000000000000000000000000000000000000000602082015250565b7f45524332303a206275726e2066726f6d20746865207a65726f2061646472657360008201527f7300000000000000000000000000000000000000000000000000000000000000602082015250565b7f45524332303a207472616e736665722066726f6d20746865207a65726f20616460008201527f6472657373000000000000000000000000000000000000000000000000000000602082015250565b7f45524332303a20617070726f76652066726f6d20746865207a65726f2061646460008201527f7265737300000000000000000000000000000000000000000000000000000000602082015250565b7f416363657373436f6e74726f6c3a206163636f756e7420000000000000000000600082015250565b7f45524332303a2064656372656173656420616c6c6f77616e63652062656c6f7760008201527f207a65726f000000000000000000000000000000000000000000000000000000602082015250565b7f206973206d697373696e6720726f6c6520000000000000000000000000000000600082015250565b7f416363657373436f6e74726f6c3a2063616e206f6e6c792072656e6f756e636560008201527f20726f6c657320666f722073656c660000000000000000000000000000000000602082015250565b7f45524332303a206d696e7420746f20746865207a65726f206164647265737300600082015250565b612fcd816129e0565b8114612fd857600080fd5b50565b612fe4816129fe565b8114612fef57600080fd5b50565b612ffb81612a08565b811461300657600080fd5b50565b61301281612a54565b811461301d57600080fd5b5056fea2646970667358221220c183fdfd272517952c55b31686688921b906c6d591d89edf65738604643a665a64736f6c63430008040033",
  "linkReferences": {},
  "deployedLinkReferences": {}
}