{
  "_format": "hh-sol-artifact-1",
  "contractName": "FinTechBlockChain",
  "sourceName": "contracts/FinTechBlockChain.sol",
  "abi": [
    {
      "inputs": [],
      "stateMutability": "nonpayable",
      "type": "constructor"
    },
    {
      "anonymous": false,
      "inputs": [
        {
          "indexed": true,
          "internalType": "address",
          "name": "owner",
          "type": "address"
        },
        {
          "indexed": true,
          "internalType": "address",
          "name": "approved",
          "type": "address"
        },
        {
          "indexed": true,
          "internalType": "uint256",
          "name": "tokenId",
          "type": "uint256"
        }
      ],
      "name": "Approval",
      "type": "event"
    },
    {
      "anonymous": false,
      "inputs": [
        {
          "indexed": true,
          "internalType": "address",
          "name": "owner",
          "type": "address"
        },
        {
          "indexed": true,
          "internalType": "address",
          "name": "operator",
          "type": "address"
        },
        {
          "indexed": false,
          "internalType": "bool",
          "name": "approved",
          "type": "bool"
        }
      ],
      "name": "ApprovalForAll",
      "type": "event"
    },
    {
      "anonymous": false,
      "inputs": [
        {
          "indexed": true,
          "internalType": "address",
          "name": "from",
          "type": "address"
        },
        {
          "indexed": true,
          "internalType": "address",
          "name": "to",
          "type": "address"
        },
        {
          "indexed": true,
          "internalType": "uint256",
          "name": "tokenId",
          "type": "uint256"
        }
      ],
      "name": "Transfer",
      "type": "event"
    },
    {
      "inputs": [
        {
          "internalType": "address",
          "name": "to",
          "type": "address"
        },
        {
          "internalType": "uint256",
          "name": "tokenId",
          "type": "uint256"
        }
      ],
      "name": "approve",
      "outputs": [],
      "stateMutability": "nonpayable",
      "type": "function"
    },
    {
      "inputs": [
        {
          "internalType": "address",
          "name": "owner",
          "type": "address"
        }
      ],
      "name": "balanceOf",
      "outputs": [
        {
          "internalType": "uint256",
          "name": "",
          "type": "uint256"
        }
      ],
      "stateMutability": "view",
      "type": "function"
    },
    {
      "inputs": [
        {
          "internalType": "uint256",
          "name": "tokenId",
          "type": "uint256"
        }
      ],
      "name": "getApproved",
      "outputs": [
        {
          "internalType": "address",
          "name": "",
          "type": "address"
        }
      ],
      "stateMutability": "view",
      "type": "function"
    },
    {
      "inputs": [
        {
          "internalType": "address",
          "name": "owner",
          "type": "address"
        },
        {
          "internalType": "address",
          "name": "operator",
          "type": "address"
        }
      ],
      "name": "isApprovedForAll",
      "outputs": [
        {
          "internalType": "bool",
          "name": "",
          "type": "bool"
        }
      ],
      "stateMutability": "view",
      "type": "function"
    },
    {
      "inputs": [],
      "name": "name",
      "outputs": [
        {
          "internalType": "string",
          "name": "",
          "type": "string"
        }
      ],
      "stateMutability": "view",
      "type": "function"
    },
    {
      "inputs": [
        {
          "internalType": "uint256",
          "name": "tokenId",
          "type": "uint256"
        }
      ],
      "name": "ownerOf",
      "outputs": [
        {
          "internalType": "address",
          "name": "",
          "type": "address"
        }
      ],
      "stateMutability": "view",
      "type": "function"
    },
    {
      "inputs": [],
      "name": "registerFinTechBlockChain",
      "outputs": [],
      "stateMutability": "nonpayable",
      "type": "function"
    },
    {
      "inputs": [
        {
          "internalType": "address",
          "name": "from",
          "type": "address"
        },
        {
          "internalType": "address",
          "name": "to",
          "type": "address"
        },
        {
          "internalType": "uint256",
          "name": "tokenId",
          "type": "uint256"
        }
      ],
      "name": "safeTransferFrom",
      "outputs": [],
      "stateMutability": "nonpayable",
      "type": "function"
    },
    {
      "inputs": [
        {
          "internalType": "address",
          "name": "from",
          "type": "address"
        },
        {
          "internalType": "address",
          "name": "to",
          "type": "address"
        },
        {
          "internalType": "uint256",
          "name": "tokenId",
          "type": "uint256"
        },
        {
          "internalType": "bytes",
          "name": "_data",
          "type": "bytes"
        }
      ],
      "name": "safeTransferFrom",
      "outputs": [],
      "stateMutability": "nonpayable",
      "type": "function"
    },
    {
      "inputs": [
        {
          "internalType": "address",
          "name": "operator",
          "type": "address"
        },
        {
          "internalType": "bool",
          "name": "approved",
          "type": "bool"
        }
      ],
      "name": "setApprovalForAll",
      "outputs": [],
      "stateMutability": "nonpayable",
      "type": "function"
    },
    {
      "inputs": [
        {
          "internalType": "bytes4",
          "name": "interfaceId",
          "type": "bytes4"
        }
      ],
      "name": "supportsInterface",
      "outputs": [
        {
          "internalType": "bool",
          "name": "",
          "type": "bool"
        }
      ],
      "stateMutability": "view",
      "type": "function"
    },
    {
      "inputs": [],
      "name": "symbol",
      "outputs": [
        {
          "internalType": "string",
          "name": "",
          "type": "string"
        }
      ],
      "stateMutability": "view",
      "type": "function"
    },
    {
      "inputs": [
        {
          "internalType": "uint256",
          "name": "tokenId",
          "type": "uint256"
        }
      ],
      "name": "tokenURI",
      "outputs": [
        {
          "internalType": "string",
          "name": "",
          "type": "string"
        }
      ],
      "stateMutability": "view",
      "type": "function"
    },
    {
      "inputs": [
        {
          "internalType": "address",
          "name": "from",
          "type": "address"
        },
        {
          "internalType": "address",
          "name": "to",
          "type": "address"
        },
        {
          "internalType": "uint256",
          "name": "tokenId",
          "type": "uint256"
        }
      ],
      "name": "transferFrom",
      "outputs": [],
      "stateMutability": "nonpayable",
      "type": "function"
    }
  ],
  "bytecode": "0x60806040523480156200001157600080fd5b506040518060400160405280601181526020017f46696e54656368426c6f636b436861696e0000000000000000000000000000008152506040518060400160405280600481526020017f4654424300000000000000000000000000000000000000000000000000000000815250816000908051906020019062000096929190620001b3565b508060019080519060200190620000af929190620001b3565b505050620000e16040518060600160405280602b8152602001620032f0602b9139620000e760201b62000b391760201c565b62000390565b6200018781604051602401620000fe9190620002a4565b6040516020818303038152906040527f41304fac000000000000000000000000000000000000000000000000000000007bffffffffffffffffffffffffffffffffffffffffffffffffffffffff19166020820180517bffffffffffffffffffffffffffffffffffffffffffffffffffffffff83818316178352505050506200018a60201b60201c565b50565b60008151905060006a636f6e736f6c652e6c6f679050602083016000808483855afa5050505050565b828054620001c1906200031a565b90600052602060002090601f016020900481019282620001e5576000855562000231565b82601f106200020057805160ff191683800117855562000231565b8280016001018555821562000231579182015b828111156200023057825182559160200191906001019062000213565b5b50905062000240919062000244565b5090565b5b808211156200025f57600081600090555060010162000245565b5090565b60006200027082620002c8565b6200027c8185620002d3565b93506200028e818560208601620002e4565b62000299816200037f565b840191505092915050565b60006020820190508181036000830152620002c0818462000263565b905092915050565b600081519050919050565b600082825260208201905092915050565b60005b8381101562000304578082015181840152602081019050620002e7565b8381111562000314576000848401525b50505050565b600060028204905060018216806200033357607f821691505b602082108114156200034a576200034962000350565b5b50919050565b7f4e487b7100000000000000000000000000000000000000000000000000000000600052602260045260246000fd5b6000601f19601f8301169050919050565b612f5080620003a06000396000f3fe608060405234801561001057600080fd5b50600436106100ea5760003560e01c80636352211e1161008c578063a22cb46511610066578063a22cb46514610249578063b88d4fde14610265578063c87b56dd14610281578063e985e9c5146102b1576100ea565b80636352211e146101cb57806370a08231146101fb57806395d89b411461022b576100ea565b8063095ea7b3116100c8578063095ea7b31461016d57806314cc856d1461018957806323b872dd1461019357806342842e0e146101af576100ea565b806301ffc9a7146100ef57806306fdde031461011f578063081812fc1461013d575b600080fd5b61010960048036038101906101049190611d48565b6102e1565b604051610116919061214e565b60405180910390f35b6101276103c3565b6040516101349190612169565b60405180910390f35b61015760048036038101906101529190611d9a565b610455565b60405161016491906120e7565b60405180910390f35b61018760048036038101906101829190611d0c565b6104da565b005b6101916105f2565b005b6101ad60048036038101906101a89190611c06565b61065f565b005b6101c960048036038101906101c49190611c06565b6106bf565b005b6101e560048036038101906101e09190611d9a565b6106df565b6040516101f291906120e7565b60405180910390f35b61021560048036038101906102109190611ba1565b610791565b60405161022291906123c9565b60405180910390f35b610233610849565b6040516102409190612169565b60405180910390f35b610263600480360381019061025e9190611cd0565b6108db565b005b61027f600480360381019061027a9190611c55565b6108f1565b005b61029b60048036038101906102969190611d9a565b610953565b6040516102a89190612169565b60405180910390f35b6102cb60048036038101906102c69190611bca565b610aa5565b6040516102d8919061214e565b60405180910390f35b60007f80ac58cd000000000000000000000000000000000000000000000000000000007bffffffffffffffffffffffffffffffffffffffffffffffffffffffff1916827bffffffffffffffffffffffffffffffffffffffffffffffffffffffff191614806103ac57507f5b5e139f000000000000000000000000000000000000000000000000000000007bffffffffffffffffffffffffffffffffffffffffffffffffffffffff1916827bffffffffffffffffffffffffffffffffffffffffffffffffffffffff1916145b806103bc57506103bb82610bd2565b5b9050919050565b6060600080546103d2906125ee565b80601f01602080910402602001604051908101604052809291908181526020018280546103fe906125ee565b801561044b5780601f106104205761010080835404028352916020019161044b565b820191906000526020600020905b81548152906001019060200180831161042e57829003601f168201915b5050505050905090565b600061046082610c3c565b61049f576040517f08c379a000000000000000000000000000000000000000000000000000000000815260040161049690612329565b60405180910390fd5b6004600083815260200190815260200160002060009054906101000a900473ffffffffffffffffffffffffffffffffffffffff169050919050565b60006104e5826106df565b90508073ffffffffffffffffffffffffffffffffffffffff168373ffffffffffffffffffffffffffffffffffffffff161415610556576040517f08c379a000000000000000000000000000000000000000000000000000000000815260040161054d90612389565b60405180910390fd5b8073ffffffffffffffffffffffffffffffffffffffff16610575610ca8565b73ffffffffffffffffffffffffffffffffffffffff1614806105a457506105a38161059e610ca8565b610aa5565b5b6105e3576040517f08c379a00000000000000000000000000000000000000000000000000000000081526004016105da90612269565b60405180910390fd5b6105ed8383610cb0565b505050565b60006105fe6007610d69565b905061060a3382610d77565b61062f81604051806102c001604052806102828152602001612c996102829139610d95565b6106396007610e09565b61065c604051806060016040528060268152602001612c73602691398233610e1f565b50565b61067061066a610ca8565b82610ebe565b6106af576040517f08c379a00000000000000000000000000000000000000000000000000000000081526004016106a6906123a9565b60405180910390fd5b6106ba838383610f9c565b505050565b6106da838383604051806020016040528060008152506108f1565b505050565b6000806002600084815260200190815260200160002060009054906101000a900473ffffffffffffffffffffffffffffffffffffffff169050600073ffffffffffffffffffffffffffffffffffffffff168173ffffffffffffffffffffffffffffffffffffffff161415610788576040517f08c379a000000000000000000000000000000000000000000000000000000000815260040161077f906122a9565b60405180910390fd5b80915050919050565b60008073ffffffffffffffffffffffffffffffffffffffff168273ffffffffffffffffffffffffffffffffffffffff161415610802576040517f08c379a00000000000000000000000000000000000000000000000000000000081526004016107f990612289565b60405180910390fd5b600360008373ffffffffffffffffffffffffffffffffffffffff1673ffffffffffffffffffffffffffffffffffffffff168152602001908152602001600020549050919050565b606060018054610858906125ee565b80601f0160208091040260200160405190810160405280929190818152602001828054610884906125ee565b80156108d15780601f106108a6576101008083540402835291602001916108d1565b820191906000526020600020905b8154815290600101906020018083116108b457829003601f168201915b5050505050905090565b6108ed6108e6610ca8565b83836111f8565b5050565b6109026108fc610ca8565b83610ebe565b610941576040517f08c379a0000000000000000000000000000000000000000000000000000000008152600401610938906123a9565b60405180910390fd5b61094d84848484611365565b50505050565b606061095e82610c3c565b61099d576040517f08c379a000000000000000000000000000000000000000000000000000000000815260040161099490612309565b60405180910390fd5b60006006600084815260200190815260200160002080546109bd906125ee565b80601f01602080910402602001604051908101604052809291908181526020018280546109e9906125ee565b8015610a365780601f10610a0b57610100808354040283529160200191610a36565b820191906000526020600020905b815481529060010190602001808311610a1957829003601f168201915b505050505090506000610a476113c1565b9050600081511415610a5d578192505050610aa0565b600082511115610a92578082604051602001610a7a9291906120c3565b60405160208183030381529060405292505050610aa0565b610a9b846113d8565b925050505b919050565b6000600560008473ffffffffffffffffffffffffffffffffffffffff1673ffffffffffffffffffffffffffffffffffffffff16815260200190815260200160002060008373ffffffffffffffffffffffffffffffffffffffff1673ffffffffffffffffffffffffffffffffffffffff16815260200190815260200160002060009054906101000a900460ff16905092915050565b610bcf81604051602401610b4d9190612169565b6040516020818303038152906040527f41304fac000000000000000000000000000000000000000000000000000000007bffffffffffffffffffffffffffffffffffffffffffffffffffffffff19166020820180517bffffffffffffffffffffffffffffffffffffffffffffffffffffffff838183161783525050505061147f565b50565b60007f01ffc9a7000000000000000000000000000000000000000000000000000000007bffffffffffffffffffffffffffffffffffffffffffffffffffffffff1916827bffffffffffffffffffffffffffffffffffffffffffffffffffffffff1916149050919050565b60008073ffffffffffffffffffffffffffffffffffffffff166002600084815260200190815260200160002060009054906101000a900473ffffffffffffffffffffffffffffffffffffffff1673ffffffffffffffffffffffffffffffffffffffff1614159050919050565b600033905090565b816004600083815260200190815260200160002060006101000a81548173ffffffffffffffffffffffffffffffffffffffff021916908373ffffffffffffffffffffffffffffffffffffffff160217905550808273ffffffffffffffffffffffffffffffffffffffff16610d23836106df565b73ffffffffffffffffffffffffffffffffffffffff167f8c5be1e5ebec7d5bd14f71427d1e84f3dd0314c0f7b2291e5b200ac8c7c3b92560405160405180910390a45050565b600081600001549050919050565b610d918282604051806020016040528060008152506114a8565b5050565b610d9e82610c3c565b610ddd576040517f08c379a0000000000000000000000000000000000000000000000000000000008152600401610dd4906122c9565b60405180910390fd5b80600660008481526020019081526020016000209080519060200190610e04929190611a2d565b505050565b6001816000016000828254019250508190555050565b610eb9838383604051602401610e379392919061218b565b6040516020818303038152906040527fe3849f79000000000000000000000000000000000000000000000000000000007bffffffffffffffffffffffffffffffffffffffffffffffffffffffff19166020820180517bffffffffffffffffffffffffffffffffffffffffffffffffffffffff838183161783525050505061147f565b505050565b6000610ec982610c3c565b610f08576040517f08c379a0000000000000000000000000000000000000000000000000000000008152600401610eff90612249565b60405180910390fd5b6000610f13836106df565b90508073ffffffffffffffffffffffffffffffffffffffff168473ffffffffffffffffffffffffffffffffffffffff161480610f8257508373ffffffffffffffffffffffffffffffffffffffff16610f6a84610455565b73ffffffffffffffffffffffffffffffffffffffff16145b80610f935750610f928185610aa5565b5b91505092915050565b8273ffffffffffffffffffffffffffffffffffffffff16610fbc826106df565b73ffffffffffffffffffffffffffffffffffffffff1614611012576040517f08c379a000000000000000000000000000000000000000000000000000000000815260040161100990612349565b60405180910390fd5b600073ffffffffffffffffffffffffffffffffffffffff168273ffffffffffffffffffffffffffffffffffffffff161415611082576040517f08c379a000000000000000000000000000000000000000000000000000000000815260040161107990612209565b60405180910390fd5b61108d838383611503565b611098600082610cb0565b6001600360008573ffffffffffffffffffffffffffffffffffffffff1673ffffffffffffffffffffffffffffffffffffffff16815260200190815260200160002060008282546110e89190612504565b925050819055506001600360008473ffffffffffffffffffffffffffffffffffffffff1673ffffffffffffffffffffffffffffffffffffffff168152602001908152602001600020600082825461113f919061247d565b92505081905550816002600083815260200190815260200160002060006101000a81548173ffffffffffffffffffffffffffffffffffffffff021916908373ffffffffffffffffffffffffffffffffffffffff160217905550808273ffffffffffffffffffffffffffffffffffffffff168473ffffffffffffffffffffffffffffffffffffffff167fddf252ad1be2c89b69c2b068fc378daa952ba7f163c4a11628f55a4df523b3ef60405160405180910390a4505050565b8173ffffffffffffffffffffffffffffffffffffffff168373ffffffffffffffffffffffffffffffffffffffff161415611267576040517f08c379a000000000000000000000000000000000000000000000000000000000815260040161125e90612229565b60405180910390fd5b80600560008573ffffffffffffffffffffffffffffffffffffffff1673ffffffffffffffffffffffffffffffffffffffff16815260200190815260200160002060008473ffffffffffffffffffffffffffffffffffffffff1673ffffffffffffffffffffffffffffffffffffffff16815260200190815260200160002060006101000a81548160ff0219169083151502179055508173ffffffffffffffffffffffffffffffffffffffff168373ffffffffffffffffffffffffffffffffffffffff167f17307eab39ab6107e8899845ad3d59bd9653f200f220920489ca2b5937696c3183604051611358919061214e565b60405180910390a3505050565b611370848484610f9c565b61137c84848484611508565b6113bb576040517f08c379a00000000000000000000000000000000000000000000000000000000081526004016113b2906121c9565b60405180910390fd5b50505050565b606060405180602001604052806000815250905090565b60606113e382610c3c565b611422576040517f08c379a000000000000000000000000000000000000000000000000000000000815260040161141990612369565b60405180910390fd5b600061142c6113c1565b9050600081511161144c5760405180602001604052806000815250611477565b806114568461169f565b6040516020016114679291906120c3565b6040516020818303038152906040525b915050919050565b60008151905060006a636f6e736f6c652e6c6f679050602083016000808483855afa5050505050565b6114b2838361184c565b6114bf6000848484611508565b6114fe576040517f08c379a00000000000000000000000000000000000000000000000000000000081526004016114f5906121c9565b60405180910390fd5b505050565b505050565b60006115298473ffffffffffffffffffffffffffffffffffffffff16611a1a565b15611692578373ffffffffffffffffffffffffffffffffffffffff1663150b7a02611552610ca8565b8786866040518563ffffffff1660e01b81526004016115749493929190612102565b602060405180830381600087803b15801561158e57600080fd5b505af19250505080156115bf57506040513d601f19601f820116820180604052508101906115bc9190611d71565b60015b611642573d80600081146115ef576040519150601f19603f3d011682016040523d82523d6000602084013e6115f4565b606091505b5060008151141561163a576040517f08c379a0000000000000000000000000000000000000000000000000000000008152600401611631906121c9565b60405180910390fd5b805181602001fd5b63150b7a0260e01b7bffffffffffffffffffffffffffffffffffffffffffffffffffffffff1916817bffffffffffffffffffffffffffffffffffffffffffffffffffffffff191614915050611697565b600190505b949350505050565b606060008214156116e7576040518060400160405280600181526020017f30000000000000000000000000000000000000000000000000000000000000008152509050611847565b600082905060005b6000821461171957808061170290612651565b915050600a8261171291906124d3565b91506116ef565b60008167ffffffffffffffff81111561175b577f4e487b7100000000000000000000000000000000000000000000000000000000600052604160045260246000fd5b6040519080825280601f01601f19166020018201604052801561178d5781602001600182028036833780820191505090505b5090505b60008514611840576001826117a69190612504565b9150600a856117b5919061269a565b60306117c1919061247d565b60f81b8183815181106117fd577f4e487b7100000000000000000000000000000000000000000000000000000000600052603260045260246000fd5b60200101907effffffffffffffffffffffffffffffffffffffffffffffffffffffffffffff1916908160001a905350600a8561183991906124d3565b9450611791565b8093505050505b919050565b600073ffffffffffffffffffffffffffffffffffffffff168273ffffffffffffffffffffffffffffffffffffffff1614156118bc576040517f08c379a00000000000000000000000000000000000000000000000000000000081526004016118b3906122e9565b60405180910390fd5b6118c581610c3c565b15611905576040517f08c379a00000000000000000000000000000000000000000000000000000000081526004016118fc906121e9565b60405180910390fd5b61191160008383611503565b6001600360008473ffffffffffffffffffffffffffffffffffffffff1673ffffffffffffffffffffffffffffffffffffffff1681526020019081526020016000206000828254611961919061247d565b92505081905550816002600083815260200190815260200160002060006101000a81548173ffffffffffffffffffffffffffffffffffffffff021916908373ffffffffffffffffffffffffffffffffffffffff160217905550808273ffffffffffffffffffffffffffffffffffffffff16600073ffffffffffffffffffffffffffffffffffffffff167fddf252ad1be2c89b69c2b068fc378daa952ba7f163c4a11628f55a4df523b3ef60405160405180910390a45050565b600080823b905060008111915050919050565b828054611a39906125ee565b90600052602060002090601f016020900481019282611a5b5760008555611aa2565b82601f10611a7457805160ff1916838001178555611aa2565b82800160010185558215611aa2579182015b82811115611aa1578251825591602001919060010190611a86565b5b509050611aaf9190611ab3565b5090565b5b80821115611acc576000816000905550600101611ab4565b5090565b6000611ae3611ade84612409565b6123e4565b905082815260208101848484011115611afb57600080fd5b611b068482856125ac565b509392505050565b600081359050611b1d81612c16565b92915050565b600081359050611b3281612c2d565b92915050565b600081359050611b4781612c44565b92915050565b600081519050611b5c81612c44565b92915050565b600082601f830112611b7357600080fd5b8135611b83848260208601611ad0565b91505092915050565b600081359050611b9b81612c5b565b92915050565b600060208284031215611bb357600080fd5b6000611bc184828501611b0e565b91505092915050565b60008060408385031215611bdd57600080fd5b6000611beb85828601611b0e565b9250506020611bfc85828601611b0e565b9150509250929050565b600080600060608486031215611c1b57600080fd5b6000611c2986828701611b0e565b9350506020611c3a86828701611b0e565b9250506040611c4b86828701611b8c565b9150509250925092565b60008060008060808587031215611c6b57600080fd5b6000611c7987828801611b0e565b9450506020611c8a87828801611b0e565b9350506040611c9b87828801611b8c565b925050606085013567ffffffffffffffff811115611cb857600080fd5b611cc487828801611b62565b91505092959194509250565b60008060408385031215611ce357600080fd5b6000611cf185828601611b0e565b9250506020611d0285828601611b23565b9150509250929050565b60008060408385031215611d1f57600080fd5b6000611d2d85828601611b0e565b9250506020611d3e85828601611b8c565b9150509250929050565b600060208284031215611d5a57600080fd5b6000611d6884828501611b38565b91505092915050565b600060208284031215611d8357600080fd5b6000611d9184828501611b4d565b91505092915050565b600060208284031215611dac57600080fd5b6000611dba84828501611b8c565b91505092915050565b611dcc81612538565b82525050565b611ddb8161254a565b82525050565b6000611dec8261243a565b611df68185612450565b9350611e068185602086016125bb565b611e0f81612787565b840191505092915050565b6000611e2582612445565b611e2f8185612461565b9350611e3f8185602086016125bb565b611e4881612787565b840191505092915050565b6000611e5e82612445565b611e688185612472565b9350611e788185602086016125bb565b80840191505092915050565b6000611e91603283612461565b9150611e9c82612798565b604082019050919050565b6000611eb4601c83612461565b9150611ebf826127e7565b602082019050919050565b6000611ed7602483612461565b9150611ee282612810565b604082019050919050565b6000611efa601983612461565b9150611f058261285f565b602082019050919050565b6000611f1d602c83612461565b9150611f2882612888565b604082019050919050565b6000611f40603883612461565b9150611f4b826128d7565b604082019050919050565b6000611f63602a83612461565b9150611f6e82612926565b604082019050919050565b6000611f86602983612461565b9150611f9182612975565b604082019050919050565b6000611fa9602e83612461565b9150611fb4826129c4565b604082019050919050565b6000611fcc602083612461565b9150611fd782612a13565b602082019050919050565b6000611fef603183612461565b9150611ffa82612a3c565b604082019050919050565b6000612012602c83612461565b915061201d82612a8b565b604082019050919050565b6000612035602983612461565b915061204082612ada565b604082019050919050565b6000612058602f83612461565b915061206382612b29565b604082019050919050565b600061207b602183612461565b915061208682612b78565b604082019050919050565b600061209e603183612461565b91506120a982612bc7565b604082019050919050565b6120bd816125a2565b82525050565b60006120cf8285611e53565b91506120db8284611e53565b91508190509392505050565b60006020820190506120fc6000830184611dc3565b92915050565b60006080820190506121176000830187611dc3565b6121246020830186611dc3565b61213160408301856120b4565b81810360608301526121438184611de1565b905095945050505050565b60006020820190506121636000830184611dd2565b92915050565b600060208201905081810360008301526121838184611e1a565b905092915050565b600060608201905081810360008301526121a58186611e1a565b90506121b460208301856120b4565b6121c16040830184611dc3565b949350505050565b600060208201905081810360008301526121e281611e84565b9050919050565b6000602082019050818103600083015261220281611ea7565b9050919050565b6000602082019050818103600083015261222281611eca565b9050919050565b6000602082019050818103600083015261224281611eed565b9050919050565b6000602082019050818103600083015261226281611f10565b9050919050565b6000602082019050818103600083015261228281611f33565b9050919050565b600060208201905081810360008301526122a281611f56565b9050919050565b600060208201905081810360008301526122c281611f79565b9050919050565b600060208201905081810360008301526122e281611f9c565b9050919050565b6000602082019050818103600083015261230281611fbf565b9050919050565b6000602082019050818103600083015261232281611fe2565b9050919050565b6000602082019050818103600083015261234281612005565b9050919050565b6000602082019050818103600083015261236281612028565b9050919050565b600060208201905081810360008301526123828161204b565b9050919050565b600060208201905081810360008301526123a28161206e565b9050919050565b600060208201905081810360008301526123c281612091565b9050919050565b60006020820190506123de60008301846120b4565b92915050565b60006123ee6123ff565b90506123fa8282612620565b919050565b6000604051905090565b600067ffffffffffffffff82111561242457612423612758565b5b61242d82612787565b9050602081019050919050565b600081519050919050565b600081519050919050565b600082825260208201905092915050565b600082825260208201905092915050565b600081905092915050565b6000612488826125a2565b9150612493836125a2565b9250827fffffffffffffffffffffffffffffffffffffffffffffffffffffffffffffffff038211156124c8576124c76126cb565b5b828201905092915050565b60006124de826125a2565b91506124e9836125a2565b9250826124f9576124f86126fa565b5b828204905092915050565b600061250f826125a2565b915061251a836125a2565b92508282101561252d5761252c6126cb565b5b828203905092915050565b600061254382612582565b9050919050565b60008115159050919050565b60007fffffffff0000000000000000000000000000000000000000000000000000000082169050919050565b600073ffffffffffffffffffffffffffffffffffffffff82169050919050565b6000819050919050565b82818337600083830152505050565b60005b838110156125d95780820151818401526020810190506125be565b838111156125e8576000848401525b50505050565b6000600282049050600182168061260657607f821691505b6020821081141561261a57612619612729565b5b50919050565b61262982612787565b810181811067ffffffffffffffff8211171561264857612647612758565b5b80604052505050565b600061265c826125a2565b91507fffffffffffffffffffffffffffffffffffffffffffffffffffffffffffffffff82141561268f5761268e6126cb565b5b600182019050919050565b60006126a5826125a2565b91506126b0836125a2565b9250826126c0576126bf6126fa565b5b828206905092915050565b7f4e487b7100000000000000000000000000000000000000000000000000000000600052601160045260246000fd5b7f4e487b7100000000000000000000000000000000000000000000000000000000600052601260045260246000fd5b7f4e487b7100000000000000000000000000000000000000000000000000000000600052602260045260246000fd5b7f4e487b7100000000000000000000000000000000000000000000000000000000600052604160045260246000fd5b6000601f19601f8301169050919050565b7f4552433732313a207472616e7366657220746f206e6f6e20455243373231526560008201527f63656976657220696d706c656d656e7465720000000000000000000000000000602082015250565b7f4552433732313a20746f6b656e20616c7265616479206d696e74656400000000600082015250565b7f4552433732313a207472616e7366657220746f20746865207a65726f2061646460008201527f7265737300000000000000000000000000000000000000000000000000000000602082015250565b7f4552433732313a20617070726f766520746f2063616c6c657200000000000000600082015250565b7f4552433732313a206f70657261746f7220717565727920666f72206e6f6e657860008201527f697374656e7420746f6b656e0000000000000000000000000000000000000000602082015250565b7f4552433732313a20617070726f76652063616c6c6572206973206e6f74206f7760008201527f6e6572206e6f7220617070726f76656420666f7220616c6c0000000000000000602082015250565b7f4552433732313a2062616c616e636520717565727920666f7220746865207a6560008201527f726f206164647265737300000000000000000000000000000000000000000000602082015250565b7f4552433732313a206f776e657220717565727920666f72206e6f6e657869737460008201527f656e7420746f6b656e0000000000000000000000000000000000000000000000602082015250565b7f45524337323155524953746f726167653a2055524920736574206f66206e6f6e60008201527f6578697374656e7420746f6b656e000000000000000000000000000000000000602082015250565b7f4552433732313a206d696e7420746f20746865207a65726f2061646472657373600082015250565b7f45524337323155524953746f726167653a2055524920717565727920666f722060008201527f6e6f6e6578697374656e7420746f6b656e000000000000000000000000000000602082015250565b7f4552433732313a20617070726f76656420717565727920666f72206e6f6e657860008201527f697374656e7420746f6b656e0000000000000000000000000000000000000000602082015250565b7f4552433732313a207472616e73666572206f6620746f6b656e2074686174206960008201527f73206e6f74206f776e0000000000000000000000000000000000000000000000602082015250565b7f4552433732314d657461646174613a2055524920717565727920666f72206e6f60008201527f6e6578697374656e7420746f6b656e0000000000000000000000000000000000602082015250565b7f4552433732313a20617070726f76616c20746f2063757272656e74206f776e6560008201527f7200000000000000000000000000000000000000000000000000000000000000602082015250565b7f4552433732313a207472616e736665722063616c6c6572206973206e6f74206f60008201527f776e6572206e6f7220617070726f766564000000000000000000000000000000602082015250565b612c1f81612538565b8114612c2a57600080fd5b50565b612c368161254a565b8114612c4157600080fd5b50565b612c4d81612556565b8114612c5857600080fd5b50565b612c64816125a2565b8114612c6f57600080fd5b5056fe416e2073747564656e7420772f2049442025732068617320726567697374657265642c202573646174613a696d6167652f7376672b786d6c3b6261736536342c50484e325a79423462577875637a30696148523063446f764c336433647935334d793576636d63764d6a41774d43397a646d6369494842795a584e6c636e5a6c51584e775a574e30556d463061573839496e684e6157355a54576c754947316c5a58516949485a705a58644362336739496a41674d43417a4e5441674d7a5577496a344b494341674944787a64486c735a543475596d467a5a53423749475a70624777364948646f6158526c4f79426d623235304c575a6862576c7365546f67633256796157593749475a76626e517463326c365a546f674d5452776544736766547776633352356247552b4369416749434138636d566a6443423361575230614430694d5441774a534967614756705a326830505349784d44416c4969426d6157787350534a696247466a617949674c7a344b49434167494478305a58683049486739496a55774a534967655430694e44556c4969426a6247467a637a3069596d467a5a5349675a47397461573568626e5174596d467a5a577870626d5539496d31705a4752735a5349676447563464433168626d4e6f62334939496d31705a4752735a53492b526d6c755647566a614341314e6a5167516d78765932744461474670626a7776644756346444344b49434167494478305a58683049486739496a55774a534967655430694e54556c4969426a6247467a637a3069596d467a5a5349675a47397461573568626e5174596d467a5a577870626d5539496d31705a4752735a5349676447563464433168626d4e6f62334939496d31705a4752735a53492b4d6a41794d69425463484a70626d63384c33526c6548512b436a777663335a6e50673d3da26469706673582212205526fce6c36982a69938e5ca35d98360b84ed479a981c1992e6f05c15b89be0964736f6c63430008040033596f75277665207265676973746572656420746f2046696e546563682035363420426c6f636b436861696e",
  "linkReferences": {},
  "deployedLinkReferences": {}
}